{
  "contractName": "DreamStakePool",
  "abi": [
    {
      "constant": true,
      "inputs": [
        {
          "name": "account",
          "type": "address"
        }
      ],
      "name": "userReward",
      "outputs": [
        {
          "name": "",
          "type": "uint256"
        }
      ],
      "payable": false,
      "stateMutability": "view",
      "type": "function"
    },
    {
      "constant": true,
      "inputs": [],
      "name": "remainRewardAmount",
      "outputs": [
        {
          "name": "",
          "type": "uint256"
        }
      ],
      "payable": false,
      "stateMutability": "view",
      "type": "function"
    },
    {
      "constant": true,
      "inputs": [],
      "name": "contractListCount",
      "outputs": [
        {
          "name": "",
          "type": "uint256"
        }
      ],
      "payable": false,
      "stateMutability": "view",
      "type": "function"
    },
    {
      "constant": true,
      "inputs": [],
      "name": "teamPoolAddress",
      "outputs": [
        {
          "name": "",
          "type": "address"
        }
      ],
      "payable": false,
      "stateMutability": "view",
      "type": "function"
    },
    {
      "constant": true,
      "inputs": [],
      "name": "totalStakedAmount",
      "outputs": [
        {
          "name": "",
          "type": "uint256"
        }
      ],
      "payable": false,
      "stateMutability": "view",
      "type": "function"
    },
    {
      "constant": true,
      "inputs": [],
      "name": "IsRunningPool",
      "outputs": [
        {
          "name": "",
          "type": "bool"
        }
      ],
      "payable": false,
      "stateMutability": "view",
      "type": "function"
    },
    {
      "constant": true,
      "inputs": [
        {
          "name": "account",
          "type": "address"
        }
      ],
      "name": "rewardAmount",
      "outputs": [
        {
          "name": "",
          "type": "uint256"
        }
      ],
      "payable": false,
      "stateMutability": "view",
      "type": "function"
    },
    {
      "constant": true,
      "inputs": [],
      "name": "owner",
      "outputs": [
        {
          "name": "",
          "type": "address"
        }
      ],
      "payable": false,
      "stateMutability": "view",
      "type": "function"
    },
    {
      "constant": true,
      "inputs": [],
      "name": "isOwner",
      "outputs": [
        {
          "name": "",
          "type": "bool"
        }
      ],
      "payable": false,
      "stateMutability": "view",
      "type": "function"
    },
    {
      "constant": false,
      "inputs": [
        {
          "name": "account",
          "type": "address"
        }
      ],
      "name": "emergencyTokenExit",
      "outputs": [
        {
          "name": "",
          "type": "bool"
        }
      ],
      "payable": false,
      "stateMutability": "nonpayable",
      "type": "function"
    },
    {
      "constant": false,
      "inputs": [
        {
          "name": "account",
          "type": "address"
        },
        {
          "name": "amount",
          "type": "uint256"
        }
      ],
      "name": "stake",
      "outputs": [
        {
          "name": "",
          "type": "bool"
        }
      ],
      "payable": false,
      "stateMutability": "nonpayable",
      "type": "function"
    },
    {
      "constant": false,
      "inputs": [
        {
          "name": "account",
          "type": "address"
        }
      ],
      "name": "claimReward",
      "outputs": [
        {
          "name": "",
          "type": "bool"
        }
      ],
      "payable": false,
      "stateMutability": "nonpayable",
      "type": "function"
    },
    {
      "constant": true,
      "inputs": [],
      "name": "ratePool",
      "outputs": [
        {
          "name": "",
          "type": "uint256"
        }
      ],
      "payable": false,
      "stateMutability": "view",
      "type": "function"
    },
    {
      "constant": true,
      "inputs": [],
      "name": "beginRewardAmount",
      "outputs": [
        {
          "name": "",
          "type": "uint256"
        }
      ],
      "payable": false,
      "stateMutability": "view",
      "type": "function"
    },
    {
      "constant": false,
      "inputs": [
        {
          "name": "account",
          "type": "address"
        }
      ],
      "name": "Unstake",
      "outputs": [
        {
          "name": "",
          "type": "bool"
        }
      ],
      "payable": false,
      "stateMutability": "nonpayable",
      "type": "function"
    },
    {
      "constant": true,
      "inputs": [
        {
          "name": "account",
          "type": "address"
        }
      ],
      "name": "rewordForSecond",
      "outputs": [
        {
          "name": "",
          "type": "uint256"
        }
      ],
      "payable": false,
      "stateMutability": "view",
      "type": "function"
    },
    {
      "constant": false,
      "inputs": [
        {
          "name": "newOwner",
          "type": "address"
        }
      ],
      "name": "transferOwnership",
      "outputs": [],
      "payable": false,
      "stateMutability": "nonpayable",
      "type": "function"
    },
    {
      "constant": true,
      "inputs": [
        {
          "name": "account",
          "type": "address"
        }
      ],
      "name": "stakedAmount",
      "outputs": [
        {
          "name": "",
          "type": "uint256"
        }
      ],
      "payable": false,
      "stateMutability": "view",
      "type": "function"
    },
    {
      "constant": true,
      "inputs": [
        {
          "name": "account",
          "type": "address"
        }
      ],
      "name": "userStakeTime",
      "outputs": [
        {
          "name": "",
          "type": "uint256"
        }
      ],
      "payable": false,
      "stateMutability": "view",
      "type": "function"
    },
    {
      "inputs": [
        {
          "name": "_name",
          "type": "string"
        },
        {
          "name": "_rate",
          "type": "uint256"
        },
        {
          "name": "_rewardToken",
          "type": "address"
        },
        {
          "name": "_stakeToken",
          "type": "address"
        },
        {
          "name": "_teamPool",
          "type": "address"
        }
      ],
      "payable": false,
      "stateMutability": "nonpayable",
      "type": "constructor"
    },
    {
      "anonymous": false,
      "inputs": [
        {
          "indexed": true,
          "name": "user",
          "type": "address"
        },
        {
          "indexed": false,
          "name": "amount",
          "type": "uint256"
        }
      ],
      "name": "Stake",
      "type": "event"
    },
    {
      "anonymous": false,
      "inputs": [
        {
          "indexed": true,
          "name": "user",
          "type": "address"
        },
        {
          "indexed": false,
          "name": "amount",
          "type": "uint256"
        }
      ],
      "name": "Withdraw",
      "type": "event"
    },
    {
      "anonymous": false,
      "inputs": [
        {
          "indexed": true,
          "name": "user",
          "type": "address"
        },
        {
          "indexed": false,
          "name": "amount",
          "type": "uint256"
        }
      ],
      "name": "EmergencyWithdraw",
      "type": "event"
    },
    {
      "anonymous": false,
      "inputs": [
        {
          "indexed": true,
          "name": "previousOwner",
          "type": "address"
        },
        {
          "indexed": true,
          "name": "newOwner",
          "type": "address"
        }
      ],
      "name": "OwnershipTransferred",
      "type": "event"
    },
    {
      "constant": false,
      "inputs": [],
      "name": "initTotalReward",
      "outputs": [],
      "payable": false,
      "stateMutability": "nonpayable",
      "type": "function"
    },
    {
      "constant": false,
      "inputs": [],
      "name": "endPool",
      "outputs": [],
      "payable": false,
      "stateMutability": "nonpayable",
      "type": "function"
    },
    {
      "constant": false,
      "inputs": [
        {
          "name": "rate",
          "type": "uint256"
        }
      ],
      "name": "changeRewardRate",
      "outputs": [],
      "payable": false,
      "stateMutability": "nonpayable",
      "type": "function"
    },
    {
      "constant": false,
      "inputs": [],
      "name": "updatePool",
      "outputs": [],
      "payable": false,
      "stateMutability": "nonpayable",
      "type": "function"
    }
  ],
  "bytecode": "0x60806040526040518060400160405280600881526020017f506f6f6c4e616d65000000000000000000000000000000000000000000000000815250600e908051906020019062000051929190620003ac565b503480156200005f57600080fd5b50604051620030d0380380620030d0833981810160405260a08110156200008557600080fd5b8101908080516401000000008111156200009e57600080fd5b82810190506020810184811115620000b557600080fd5b8151856001820283011164010000000082111715620000d357600080fd5b50509291906020018051906020019092919080519060200190929190805190602001909291908051906020019092919050505083838383336000806101000a81548173ffffffffffffffffffffffffffffffffffffffff021916908373ffffffffffffffffffffffffffffffffffffffff1602179055506000809054906101000a900473ffffffffffffffffffffffffffffffffffffffff1673ffffffffffffffffffffffffffffffffffffffff16600073ffffffffffffffffffffffffffffffffffffffff167f8be0079c531659141344cd1fd0a4f28419497f9722a3daafe3b4186f6b6457e060405160405180910390a382600560006101000a81548173ffffffffffffffffffffffffffffffffffffffff021916908373ffffffffffffffffffffffffffffffffffffffff16021790555081600660006101000a81548173ffffffffffffffffffffffffffffffffffffffff021916908373ffffffffffffffffffffffffffffffffffffffff1602179055508360048190555080600760006101000a81548173ffffffffffffffffffffffffffffffffffffffff021916908373ffffffffffffffffffffffffffffffffffffffff16021790555060008060146101000a81548160ff02191690831515021790555050505050620002be6200035560201b60201c565b62000331576040517f08c379a00000000000000000000000000000000000000000000000000000000081526004018080602001828103825260208152602001807f4f776e61626c653a2063616c6c6572206973206e6f7420746865206f776e657281525060200191505060405180910390fd5b84600e908051906020019062000349929190620003ac565b5050505050506200045b565b60008060009054906101000a900473ffffffffffffffffffffffffffffffffffffffff1673ffffffffffffffffffffffffffffffffffffffff163373ffffffffffffffffffffffffffffffffffffffff1614905090565b828054600181600116156101000203166002900490600052602060002090601f016020900481019282601f10620003ef57805160ff191683800117855562000420565b8280016001018555821562000420579182015b828111156200041f57825182559160200191906001019062000402565b5b5090506200042f919062000433565b5090565b6200045891905b80821115620004545760008160009055506001016200043a565b5090565b90565b612c65806200046b6000396000f3fe608060405234801561001057600080fd5b506004361061014c5760003560e01c806392632a9e116100c3578063e3161ddd1161007c578063e3161ddd146104cf578063e5d648ba146104d9578063e80bd6b514610535578063f2fde38b1461058d578063f9931855146105d1578063fed2b05e146106295761014c565b806392632a9e1461036b578063adc9772e146103c7578063b6a55e051461042d578063d279c19114610437578063d2aa3ab914610493578063dcadfe6e146104b15761014c565b8063567e98f911610115578063567e98f91461023957806356f840a114610257578063645a8a561461027957806374f237c4146102d15780638da5cb5b146102ff5780638f32d59b146103495761014c565b80620a74be1461015157806324a2ddaf146101a95780632d42cf7d146101c757806336577b0d146101d1578063494b90e8146101ef575b600080fd5b6101936004803603602081101561016757600080fd5b81019080803573ffffffffffffffffffffffffffffffffffffffff169060200190929190505050610681565b6040518082815260200191505060405180910390f35b6101b16106ca565b6040518082815260200191505060405180910390f35b6101cf6106d4565b005b6101d9610760565b6040518082815260200191505060405180910390f35b6101f761076d565b604051808273ffffffffffffffffffffffffffffffffffffffff1673ffffffffffffffffffffffffffffffffffffffff16815260200191505060405180910390f35b610241610797565b6040518082815260200191505060405180910390f35b61025f6107a1565b604051808215151515815260200191505060405180910390f35b6102bb6004803603602081101561028f57600080fd5b81019080803573ffffffffffffffffffffffffffffffffffffffff1690602001909291905050506107b7565b6040518082815260200191505060405180910390f35b6102fd600480360360208110156102e757600080fd5b8101908080359060200190929190505050610800565b005b610307610886565b604051808273ffffffffffffffffffffffffffffffffffffffff1673ffffffffffffffffffffffffffffffffffffffff16815260200191505060405180910390f35b6103516108af565b604051808215151515815260200191505060405180910390f35b6103ad6004803603602081101561038157600080fd5b81019080803573ffffffffffffffffffffffffffffffffffffffff169060200190929190505050610906565b604051808215151515815260200191505060405180910390f35b610413600480360360408110156103dd57600080fd5b81019080803573ffffffffffffffffffffffffffffffffffffffff16906020019092919080359060200190929190505050610a33565b604051808215151515815260200191505060405180910390f35b610435610e32565b005b6104796004803603602081101561044d57600080fd5b81019080803573ffffffffffffffffffffffffffffffffffffffff169060200190929190505050610eb6565b604051808215151515815260200191505060405180910390f35b61049b61112d565b6040518082815260200191505060405180910390f35b6104b9611137565b6040518082815260200191505060405180910390f35b6104d7611141565b005b61051b600480360360208110156104ef57600080fd5b81019080803573ffffffffffffffffffffffffffffffffffffffff1690602001909291905050506111c5565b604051808215151515815260200191505060405180910390f35b6105776004803603602081101561054b57600080fd5b81019080803573ffffffffffffffffffffffffffffffffffffffff16906020019092919050505061141a565b6040518082815260200191505060405180910390f35b6105cf600480360360208110156105a357600080fd5b81019080803573ffffffffffffffffffffffffffffffffffffffff16906020019092919050505061150d565b005b610613600480360360208110156105e757600080fd5b81019080803573ffffffffffffffffffffffffffffffffffffffff169060200190929190505050611593565b6040518082815260200191505060405180910390f35b61066b6004803603602081101561063f57600080fd5b81019080803573ffffffffffffffffffffffffffffffffffffffff1690602001909291905050506115dc565b6040518082815260200191505060405180910390f35b6000600960008373ffffffffffffffffffffffffffffffffffffffff1673ffffffffffffffffffffffffffffffffffffffff168152602001908152602001600020549050919050565b6000600354905090565b6106dc6108af565b61074e576040517f08c379a00000000000000000000000000000000000000000000000000000000081526004018080602001828103825260208152602001807f4f776e61626c653a2063616c6c6572206973206e6f7420746865206f776e657281525060200191505060405180910390fd5b61075e610759610886565b611625565b565b6000600b80549050905090565b6000600760009054906101000a900473ffffffffffffffffffffffffffffffffffffffff16905090565b6000600154905090565b60008060149054906101000a900460ff16905090565b6000600960008373ffffffffffffffffffffffffffffffffffffffff1673ffffffffffffffffffffffffffffffffffffffff168152602001908152602001600020549050919050565b6108086108af565b61087a576040517f08c379a00000000000000000000000000000000000000000000000000000000081526004018080602001828103825260208152602001807f4f776e61626c653a2063616c6c6572206973206e6f7420746865206f776e657281525060200191505060405180910390fd5b61088381611cfe565b50565b60008060009054906101000a900473ffffffffffffffffffffffffffffffffffffffff16905090565b60008060009054906101000a900473ffffffffffffffffffffffffffffffffffffffff1673ffffffffffffffffffffffffffffffffffffffff163373ffffffffffffffffffffffffffffffffffffffff1614905090565b600080600860008473ffffffffffffffffffffffffffffffffffffffff1673ffffffffffffffffffffffffffffffffffffffff1681526020019081526020016000205490506109558382611d10565b6000600860008573ffffffffffffffffffffffffffffffffffffffff1673ffffffffffffffffffffffffffffffffffffffff168152602001908152602001600020819055506000600960008573ffffffffffffffffffffffffffffffffffffffff1673ffffffffffffffffffffffffffffffffffffffff168152602001908152602001600020819055508273ffffffffffffffffffffffffffffffffffffffff167f5fafa99d0643513820be26656b45130b01e1c03062e1266bf36f88cbd3bd9695826040518082815260200191505060405180910390a250919050565b600060011515600060149054906101000a900460ff16151514610abe576040517f08c379a00000000000000000000000000000000000000000000000000000000081526004018080602001828103825260138152602001807f54686520706f6f6c2068617320656e6465642e0000000000000000000000000081525060200191505060405180910390fd5b60008211610b34576040517f08c379a00000000000000000000000000000000000000000000000000000000081526004018080602001828103825260138152602001807f54686520706f6f6c2068617320656e6465642e0000000000000000000000000081525060200191505060405180910390fd5b610b3d83611ef6565b610b4561200f565b6000600c60008573ffffffffffffffffffffffffffffffffffffffff1673ffffffffffffffffffffffffffffffffffffffff1681526020019081526020016000205411610c155742600c60008573ffffffffffffffffffffffffffffffffffffffff1673ffffffffffffffffffffffffffffffffffffffff1681526020019081526020016000208190555042600d60008573ffffffffffffffffffffffffffffffffffffffff1673ffffffffffffffffffffffffffffffffffffffff168152602001908152602001600020819055505b600660009054906101000a900473ffffffffffffffffffffffffffffffffffffffff1673ffffffffffffffffffffffffffffffffffffffff166323b872dd8430856040518463ffffffff1660e01b8152600401808473ffffffffffffffffffffffffffffffffffffffff1673ffffffffffffffffffffffffffffffffffffffff1681526020018373ffffffffffffffffffffffffffffffffffffffff1673ffffffffffffffffffffffffffffffffffffffff1681526020018281526020019350505050602060405180830381600087803b158015610cf257600080fd5b505af1158015610d06573d6000803e3d6000fd5b505050506040513d6020811015610d1c57600080fd5b810190808051906020019092919050505050610d8082600860008673ffffffffffffffffffffffffffffffffffffffff1673ffffffffffffffffffffffffffffffffffffffff1681526020019081526020016000205461208890919063ffffffff16565b600860008573ffffffffffffffffffffffffffffffffffffffff1673ffffffffffffffffffffffffffffffffffffffff16815260200190815260200160002081905550610dd88260015461208890919063ffffffff16565b6001819055508273ffffffffffffffffffffffffffffffffffffffff167febedb8b3c678666e7f36970bc8f57abf6d8fa2e828c0da91ea5b75bf68ed101a836040518082815260200191505060405180910390a292915050565b610e3a6108af565b610eac576040517f08c379a00000000000000000000000000000000000000000000000000000000081526004018080602001828103825260208152602001807f4f776e61626c653a2063616c6c6572206973206e6f7420746865206f776e657281525060200191505060405180910390fd5b610eb4612110565b565b6000610ec061200f565b6000600960008473ffffffffffffffffffffffffffffffffffffffff1673ffffffffffffffffffffffffffffffffffffffff1681526020019081526020016000205411610f75576040517f08c379a00000000000000000000000000000000000000000000000000000000081526004018080602001828103825260108152602001807f4e6f7468696e6720746f20636c61696d0000000000000000000000000000000081525060200191505060405180910390fd5b6000600960008473ffffffffffffffffffffffffffffffffffffffff1673ffffffffffffffffffffffffffffffffffffffff1681526020019081526020016000205490506000600960008573ffffffffffffffffffffffffffffffffffffffff1673ffffffffffffffffffffffffffffffffffffffff1681526020019081526020016000208190555042600d60008573ffffffffffffffffffffffffffffffffffffffff1673ffffffffffffffffffffffffffffffffffffffff16815260200190815260200160002081905550600560009054906101000a900473ffffffffffffffffffffffffffffffffffffffff1673ffffffffffffffffffffffffffffffffffffffff1663a9059cbb84836040518363ffffffff1660e01b8152600401808373ffffffffffffffffffffffffffffffffffffffff1673ffffffffffffffffffffffffffffffffffffffff16815260200182815260200192505050602060405180830381600087803b1580156110eb57600080fd5b505af11580156110ff573d6000803e3d6000fd5b505050506040513d602081101561111557600080fd5b81019080805190602001909291905050505050919050565b6000600454905090565b6000600254905090565b6111496108af565b6111bb576040517f08c379a00000000000000000000000000000000000000000000000000000000081526004018080602001828103825260208152602001807f4f776e61626c653a2063616c6c6572206973206e6f7420746865206f776e657281525060200191505060405180910390fd5b6111c3612215565b565b60006111cf61200f565b6000600960008473ffffffffffffffffffffffffffffffffffffffff1673ffffffffffffffffffffffffffffffffffffffff168152602001908152602001600020541115611387576000600960008473ffffffffffffffffffffffffffffffffffffffff1673ffffffffffffffffffffffffffffffffffffffff1681526020019081526020016000205490506000600960008573ffffffffffffffffffffffffffffffffffffffff1673ffffffffffffffffffffffffffffffffffffffff16815260200190815260200160002081905550600560009054906101000a900473ffffffffffffffffffffffffffffffffffffffff1673ffffffffffffffffffffffffffffffffffffffff1663a9059cbb84836040518363ffffffff1660e01b8152600401808373ffffffffffffffffffffffffffffffffffffffff1673ffffffffffffffffffffffffffffffffffffffff16815260200182815260200192505050602060405180830381600087803b15801561134957600080fd5b505af115801561135d573d6000803e3d6000fd5b505050506040513d602081101561137357600080fd5b810190808051906020019092919050505050505b6000600d60008473ffffffffffffffffffffffffffffffffffffffff1673ffffffffffffffffffffffffffffffffffffffff1681526020019081526020016000208190555061141582600860008573ffffffffffffffffffffffffffffffffffffffff1673ffffffffffffffffffffffffffffffffffffffff16815260200190815260200160002054611d10565b919050565b600080600860008473ffffffffffffffffffffffffffffffffffffffff1673ffffffffffffffffffffffffffffffffffffffff16815260200190815260200160002054905060008111611471576000915050611508565b600061149b606461148d6004548561221f90919063ffffffff16565b6122a590919063ffffffff16565b905060006114b461016d836122a590919063ffffffff16565b905060006114cc6018836122a590919063ffffffff16565b905060006114e4603c836122a590919063ffffffff16565b905060006114fc603c836122a590919063ffffffff16565b90508096505050505050505b919050565b6115156108af565b611587576040517f08c379a00000000000000000000000000000000000000000000000000000000081526004018080602001828103825260208152602001807f4f776e61626c653a2063616c6c6572206973206e6f7420746865206f776e657281525060200191505060405180910390fd5b611590816122ef565b50565b6000600860008373ffffffffffffffffffffffffffffffffffffffff1673ffffffffffffffffffffffffffffffffffffffff168152602001908152602001600020549050919050565b6000600d60008373ffffffffffffffffffffffffffffffffffffffff1673ffffffffffffffffffffffffffffffffffffffff168152602001908152602001600020549050919050565b61162d61200f565b60008090505b600b8054905081101561188b576000600b828154811061164f57fe5b9060005260206000200160009054906101000a900473ffffffffffffffffffffffffffffffffffffffff1690506000600960008373ffffffffffffffffffffffffffffffffffffffff1673ffffffffffffffffffffffffffffffffffffffff168152602001908152602001600020541115611834576000600960008373ffffffffffffffffffffffffffffffffffffffff1673ffffffffffffffffffffffffffffffffffffffff1681526020019081526020016000205490506000600960008473ffffffffffffffffffffffffffffffffffffffff1673ffffffffffffffffffffffffffffffffffffffff16815260200190815260200160002081905550600560009054906101000a900473ffffffffffffffffffffffffffffffffffffffff1673ffffffffffffffffffffffffffffffffffffffff1663a9059cbb83836040518363ffffffff1660e01b8152600401808373ffffffffffffffffffffffffffffffffffffffff1673ffffffffffffffffffffffffffffffffffffffff16815260200182815260200192505050602060405180830381600087803b1580156117f657600080fd5b505af115801561180a573d6000803e3d6000fd5b505050506040513d602081101561182057600080fd5b810190808051906020019092919050505050505b61187d81600860008473ffffffffffffffffffffffffffffffffffffffff1673ffffffffffffffffffffffffffffffffffffffff16815260200190815260200160002054611d10565b508080600101915050611633565b50600073ffffffffffffffffffffffffffffffffffffffff16600760009054906101000a900473ffffffffffffffffffffffffffffffffffffffff1673ffffffffffffffffffffffffffffffffffffffff1614611b2357600060096000600760009054906101000a900473ffffffffffffffffffffffffffffffffffffffff1673ffffffffffffffffffffffffffffffffffffffff1673ffffffffffffffffffffffffffffffffffffffff168152602001908152602001600020541115611b2257600060096000600760009054906101000a900473ffffffffffffffffffffffffffffffffffffffff1673ffffffffffffffffffffffffffffffffffffffff1673ffffffffffffffffffffffffffffffffffffffff168152602001908152602001600020549050600060096000600760009054906101000a900473ffffffffffffffffffffffffffffffffffffffff1673ffffffffffffffffffffffffffffffffffffffff1673ffffffffffffffffffffffffffffffffffffffff16815260200190815260200160002081905550600560009054906101000a900473ffffffffffffffffffffffffffffffffffffffff1673ffffffffffffffffffffffffffffffffffffffff1663a9059cbb600760009054906101000a900473ffffffffffffffffffffffffffffffffffffffff16836040518363ffffffff1660e01b8152600401808373ffffffffffffffffffffffffffffffffffffffff1673ffffffffffffffffffffffffffffffffffffffff16815260200182815260200192505050602060405180830381600087803b158015611ae457600080fd5b505af1158015611af8573d6000803e3d6000fd5b505050506040513d6020811015611b0e57600080fd5b810190808051906020019092919050505050505b5b6000600560009054906101000a900473ffffffffffffffffffffffffffffffffffffffff1673ffffffffffffffffffffffffffffffffffffffff166370a08231306040518263ffffffff1660e01b8152600401808273ffffffffffffffffffffffffffffffffffffffff1673ffffffffffffffffffffffffffffffffffffffff16815260200191505060206040518083038186803b158015611bc457600080fd5b505afa158015611bd8573d6000803e3d6000fd5b505050506040513d6020811015611bee57600080fd5b810190808051906020019092919050505090506000811115611cf057600560009054906101000a900473ffffffffffffffffffffffffffffffffffffffff1673ffffffffffffffffffffffffffffffffffffffff1663a9059cbb83836040518363ffffffff1660e01b8152600401808373ffffffffffffffffffffffffffffffffffffffff1673ffffffffffffffffffffffffffffffffffffffff16815260200182815260200192505050602060405180830381600087803b158015611cb357600080fd5b505af1158015611cc7573d6000803e3d6000fd5b505050506040513d6020811015611cdd57600080fd5b8101908080519060200190929190505050505b611cfa6000612433565b5050565b611d0661200f565b8060048190555050565b6000600860008473ffffffffffffffffffffffffffffffffffffffff1673ffffffffffffffffffffffffffffffffffffffff168152602001908152602001600020541015611d5d57600080fd5b611daf81600860008573ffffffffffffffffffffffffffffffffffffffff1673ffffffffffffffffffffffffffffffffffffffff1681526020019081526020016000205461245090919063ffffffff16565b600860008473ffffffffffffffffffffffffffffffffffffffff1673ffffffffffffffffffffffffffffffffffffffff16815260200190815260200160002081905550611e078160015461245090919063ffffffff16565b600181905550600660009054906101000a900473ffffffffffffffffffffffffffffffffffffffff1673ffffffffffffffffffffffffffffffffffffffff1663a9059cbb83836040518363ffffffff1660e01b8152600401808373ffffffffffffffffffffffffffffffffffffffff1673ffffffffffffffffffffffffffffffffffffffff16815260200182815260200192505050602060405180830381600087803b158015611eb657600080fd5b505af1158015611eca573d6000803e3d6000fd5b505050506040513d6020811015611ee057600080fd5b8101908080519060200190929190505050505050565b600a60008273ffffffffffffffffffffffffffffffffffffffff1673ffffffffffffffffffffffffffffffffffffffff16815260200190815260200160002060009054906101000a900460ff1615611f4d5761200c565b6001600a60008373ffffffffffffffffffffffffffffffffffffffff1673ffffffffffffffffffffffffffffffffffffffff16815260200190815260200160002060006101000a81548160ff021916908315150217905550600b8190806001815401808255809150509060018203906000526020600020016000909192909190916101000a81548173ffffffffffffffffffffffffffffffffffffffff021916908373ffffffffffffffffffffffffffffffffffffffff160217905550505b50565b60008090505b600b8054905081101561208557600060149054906101000a900460ff161561207857612077600b828154811061204757fe5b9060005260206000200160009054906101000a900473ffffffffffffffffffffffffffffffffffffffff1661249a565b5b8080600101915050612015565b50565b600080828401905083811015612106576040517f08c379a000000000000000000000000000000000000000000000000000000000815260040180806020018281038252601b8152602001807f536166654d6174683a206164646974696f6e206f766572666c6f77000000000081525060200191505060405180910390fd5b8091505092915050565b600560009054906101000a900473ffffffffffffffffffffffffffffffffffffffff1673ffffffffffffffffffffffffffffffffffffffff166370a08231306040518263ffffffff1660e01b8152600401808273ffffffffffffffffffffffffffffffffffffffff1673ffffffffffffffffffffffffffffffffffffffff16815260200191505060206040518083038186803b1580156121af57600080fd5b505afa1580156121c3573d6000803e3d6000fd5b505050506040513d60208110156121d957600080fd5b81019080805190602001909291905050506002819055506000600254116121ff57612213565b6002546003819055506122126001612433565b5b565b61221d61200f565b565b600080831415612232576000905061229f565b600082840290508284828161224357fe5b041461229a576040517f08c379a0000000000000000000000000000000000000000000000000000000008152600401808060200182810382526021815260200180612c106021913960400191505060405180910390fd5b809150505b92915050565b60006122e783836040518060400160405280601a81526020017f536166654d6174683a206469766973696f6e206279207a65726f000000000000815250612964565b905092915050565b600073ffffffffffffffffffffffffffffffffffffffff168173ffffffffffffffffffffffffffffffffffffffff161415612375576040517f08c379a0000000000000000000000000000000000000000000000000000000008152600401808060200182810382526026815260200180612bea6026913960400191505060405180910390fd5b8073ffffffffffffffffffffffffffffffffffffffff166000809054906101000a900473ffffffffffffffffffffffffffffffffffffffff1673ffffffffffffffffffffffffffffffffffffffff167f8be0079c531659141344cd1fd0a4f28419497f9722a3daafe3b4186f6b6457e060405160405180910390a3806000806101000a81548173ffffffffffffffffffffffffffffffffffffffff021916908373ffffffffffffffffffffffffffffffffffffffff16021790555050565b80600060146101000a81548160ff02191690831515021790555050565b600061249283836040518060400160405280601e81526020017f536166654d6174683a207375627472616374696f6e206f766572666c6f770000815250612a2a565b905092915050565b60006124e4600c60008473ffffffffffffffffffffffffffffffffffffffff1673ffffffffffffffffffffffffffffffffffffffff16815260200190815260200160002054612aea565b9050600081116124f45750612961565b6000600860008473ffffffffffffffffffffffffffffffffffffffff1673ffffffffffffffffffffffffffffffffffffffff16815260200190815260200160002054905060008111612547575050612961565b42600c60008573ffffffffffffffffffffffffffffffffffffffff1673ffffffffffffffffffffffffffffffffffffffff1681526020019081526020016000208190555060006125978383612b11565b9050806003541061277c5761261a600960008673ffffffffffffffffffffffffffffffffffffffff1673ffffffffffffffffffffffffffffffffffffffff1681526020019081526020016000205461260c60646125fe605f8661221f90919063ffffffff16565b6122a590919063ffffffff16565b61208890919063ffffffff16565b600960008673ffffffffffffffffffffffffffffffffffffffff1673ffffffffffffffffffffffffffffffffffffffff168152602001908152602001600020819055506126f760096000600760009054906101000a900473ffffffffffffffffffffffffffffffffffffffff1673ffffffffffffffffffffffffffffffffffffffff1673ffffffffffffffffffffffffffffffffffffffff168152602001908152602001600020546126e960646126db60058661221f90919063ffffffff16565b6122a590919063ffffffff16565b61208890919063ffffffff16565b60096000600760009054906101000a900473ffffffffffffffffffffffffffffffffffffffff1673ffffffffffffffffffffffffffffffffffffffff1673ffffffffffffffffffffffffffffffffffffffff168152602001908152602001600020819055506127718160035461245090919063ffffffff16565b60038190555061295d565b600060035411156129525760006003549050600060038190555061280e600960008773ffffffffffffffffffffffffffffffffffffffff1673ffffffffffffffffffffffffffffffffffffffff1681526020019081526020016000205461280060646127f2605f8661221f90919063ffffffff16565b6122a590919063ffffffff16565b61208890919063ffffffff16565b600960008773ffffffffffffffffffffffffffffffffffffffff1673ffffffffffffffffffffffffffffffffffffffff168152602001908152602001600020819055506128eb60096000600760009054906101000a900473ffffffffffffffffffffffffffffffffffffffff1673ffffffffffffffffffffffffffffffffffffffff1673ffffffffffffffffffffffffffffffffffffffff168152602001908152602001600020546128dd60646128cf60058661221f90919063ffffffff16565b6122a590919063ffffffff16565b61208890919063ffffffff16565b60096000600760009054906101000a900473ffffffffffffffffffffffffffffffffffffffff1673ffffffffffffffffffffffffffffffffffffffff1673ffffffffffffffffffffffffffffffffffffffff16815260200190815260200160002081905550505b61295c6000612433565b5b5050505b50565b60008083118290612a10576040517f08c379a00000000000000000000000000000000000000000000000000000000081526004018080602001828103825283818151815260200191508051906020019080838360005b838110156129d55780820151818401526020810190506129ba565b50505050905090810190601f168015612a025780820380516001836020036101000a031916815260200191505b509250505060405180910390fd5b506000838581612a1c57fe5b049050809150509392505050565b6000838311158290612ad7576040517f08c379a00000000000000000000000000000000000000000000000000000000081526004018080602001828103825283818151815260200191508051906020019080838360005b83811015612a9c578082015181840152602081019050612a81565b50505050905090810190601f168015612ac95780820380516001836020036101000a031916815260200191505b509250505060405180910390fd5b5060008385039050809150509392505050565b600080829050600042905080821015612b0557818103612b08565b60005b92505050919050565b600080821415612b245760009050612be3565b60008311612b355760009050612be3565b6000612b5f6064612b516004548661221f90919063ffffffff16565b6122a590919063ffffffff16565b90506000612b7861016d836122a590919063ffffffff16565b90506000612b906018836122a590919063ffffffff16565b90506000612ba8603c836122a590919063ffffffff16565b90506000612bc0603c836122a590919063ffffffff16565b90506000612bd7898361221f90919063ffffffff16565b90508096505050505050505b9291505056fe4f776e61626c653a206e6577206f776e657220697320746865207a65726f2061646472657373536166654d6174683a206d756c7469706c69636174696f6e206f766572666c6f77a265627a7a723058202deb1a2a82037e6e120d5acae29b8475a6d2ad4815c25a537d71ae4f8fbd9a9f64736f6c634300050a0032",
  "source": "pragma solidity ^0.5.10;\r\n\r\nimport \"../node_modules/@openzeppelin/contracts/token/ERC20/IERC20.sol\";\r\nimport \"../node_modules/@openzeppelin/contracts/math/SafeMath.sol\";\r\nimport \"./Ownable.sol\";\r\n\r\ninterface ITokenRewardPool {\r\n    //\r\n    function stake (address account, uint256 amount) external returns (bool);\r\n\r\n    // \r\n    function Unstake (address account) external returns (bool);\r\n\r\n    // \r\n    function claimReward (address account) external returns (bool);\r\n\r\n    // \r\n    function emergencyTokenExit (address account) external returns (bool);\r\n\r\n   //  \r\n    function totalStakedAmount() external view returns (uint256);\r\n\r\n    //   \r\n    function stakedAmount(address account) external view returns (uint256);\r\n\r\n    //   \r\n    function rewardAmount(address account) external view returns (uint256);\r\n\r\n    //  \r\n    function beginRewardAmount() external view returns (uint256);\r\n\r\n    //   \r\n    function remainRewardAmount() external view returns (uint256);\r\n\t\r\n    //  \r\n    function ratePool() external view returns (uint256);\r\n\r\n    //  \r\n    function IsRunningPool() external view returns (bool);\r\n\r\n}\r\n\r\ncontract TokenRewardPool is ITokenRewardPool{\r\n    using SafeMath for uint256;\r\n    bool private IS_RUNNING_POOL;\r\n\r\n    uint256 private TOTAL_STAKED_AMOUNT; // \r\n    uint256 private BEGIN_REWARD; //   \r\n    uint256 private REMAIN_REWARD; //  \r\n    uint256 private REWARD_RATE; //\r\n\r\n    IERC20 private rewardToken; // \r\n    IERC20 private stakeToken; // \r\n\r\n    address private TEAM_POOL; // \r\n\r\n    mapping (address => uint256) private USER_STAKED_AMOUNT; //  \r\n    mapping (address => uint256) private USER_REWARD; // \r\n    mapping (address => bool) private IS_REGISTED;\r\n    address[] private CONTRACT_LIST;\r\n    mapping (address => uint256) private UPDATED_TIMESTAMP;\r\n\r\n    event Stake(address indexed user, uint256 amount);\r\n    event Withdraw(address indexed user, uint256 amount);\r\n    event EmergencyWithdraw(address indexed user, uint256 amount);\r\n\r\n    mapping (address => uint256) private USER_STAKE_TIME; //   \r\n\r\n    constructor (\r\n        uint256 _rewardRate, // \r\n        address _rewardToken, // \r\n        address _stakeToken, // \r\n        address _teamPool\r\n    ) internal {\r\n        rewardToken = IERC20(_rewardToken);\r\n        stakeToken = IERC20(_stakeToken);\r\n        REWARD_RATE = _rewardRate;\r\n        TEAM_POOL = _teamPool;\r\n        IS_RUNNING_POOL = false;\r\n    }\r\n    \r\n      //\r\n    function stake (address account, uint256 amount) external returns (bool){\r\n\r\n        require(IS_RUNNING_POOL == true, \"The pool has ended.\");\r\n        require(amount > 0, \"The pool has ended.\");\r\n\r\n        _registAddress(account); //    \r\n        // _updateReward(account); //   ,        \r\n        _updateAllReward();\r\n\r\n        if(UPDATED_TIMESTAMP[account] <= 0){\r\n            UPDATED_TIMESTAMP[account] = block.timestamp;\r\n            USER_STAKE_TIME[account] = block.timestamp;//      \r\n        }\r\n \r\n        //   \r\n        stakeToken.transferFrom(account, address(this), amount); \r\n\r\n        //        \r\n        USER_STAKED_AMOUNT[account] = USER_STAKED_AMOUNT[account].add(amount);\r\n\r\n        //  STAKE  \r\n        TOTAL_STAKED_AMOUNT = TOTAL_STAKED_AMOUNT.add(amount);\r\n        \r\n        emit Stake(account, amount);\r\n    }\r\n\r\n    // \r\n    function Unstake (address account) external returns (bool){\r\n\r\n        // \r\n        // _updateReward(account);\r\n        _updateAllReward();\r\n        //   \r\n        if(USER_REWARD[account] > 0){\r\n            uint256 rewards = USER_REWARD[account];\r\n            USER_REWARD[account] = 0;\r\n            rewardToken.transfer(account, rewards);\r\n        }\r\n        USER_STAKE_TIME[account] = 0;//      \r\n        //    \r\n        _stake_token_withdraw(account, USER_STAKED_AMOUNT[account]);\r\n    }\r\n\r\n    // \r\n    function claimReward (address account) external returns (bool){\r\n        \r\n        // _updateReward(account); //  \r\n        _updateAllReward();\r\n\r\n        // Error\r\n        require(USER_REWARD[account] > 0, \"Nothing to claim\");\r\n\r\n        uint256 withrawAmount = USER_REWARD[account];\r\n        USER_REWARD[account] = 0; // \r\n\r\n        USER_STAKE_TIME[account] = block.timestamp; //      \r\n\r\n        rewardToken.transfer(account, withrawAmount);\r\n    }\r\n\r\n   //  \r\n    function totalStakedAmount() external view returns (uint256){\r\n        return TOTAL_STAKED_AMOUNT;\r\n    }\r\n\r\n    //   \r\n    function stakedAmount(address account) external view returns (uint256){\r\n        return USER_STAKED_AMOUNT[account];\r\n    }\r\n\r\n    //   \r\n    function rewardAmount(address account) external view returns (uint256){\r\n        return USER_REWARD[account];\r\n    }\r\n\r\n    //  \r\n    function beginRewardAmount() external view returns (uint256){\r\n         return BEGIN_REWARD;\r\n    }\r\n\r\n    //   \r\n    function remainRewardAmount() external view returns (uint256){\r\n         return REMAIN_REWARD;\r\n    }\r\n\t\r\n    //  \r\n    function ratePool() external view returns (uint256){\r\n        return REWARD_RATE;\r\n    }\r\n\r\n    //  \r\n    function IsRunningPool() external view returns (bool){\r\n        return IS_RUNNING_POOL;\r\n    }\r\n\r\n    function emergencyTokenExit (address account) external returns (bool){\r\n        uint256 amount = USER_STAKED_AMOUNT[account];\r\n        _stake_token_withdraw(account, amount);\r\n\r\n        USER_STAKED_AMOUNT[account] = 0;\r\n        USER_REWARD[account] = 0;\r\n\r\n        emit EmergencyWithdraw(account, amount);\r\n    }\r\n\r\n   function _initPool() internal {\r\n\r\n        //     \r\n        BEGIN_REWARD = rewardToken.balanceOf(address(this));\r\n        //    \r\n        if(BEGIN_REWARD <= 0){\r\n            return;\r\n        }else{\r\n            REMAIN_REWARD = BEGIN_REWARD;\r\n            //      SET\r\n\r\n            _setIsRunningPool(true); //Pool  \r\n        }\r\n    }\r\n\r\n    //   \r\n    function _setIsRunningPool(bool _isRunningPool) internal {\r\n        IS_RUNNING_POOL = _isRunningPool;\r\n    }\r\n\r\n    //   \r\n    function _stake_token_withdraw (address host, uint256 amount) internal {\r\n        //   \r\n        require(USER_STAKED_AMOUNT[host] >= 0);\r\n        //   0  \r\n\r\n        USER_STAKED_AMOUNT[host] = USER_STAKED_AMOUNT[host].sub(amount);\r\n        //   \r\n\r\n        TOTAL_STAKED_AMOUNT = TOTAL_STAKED_AMOUNT.sub(amount);\r\n        //  .\r\n\r\n        stakeToken.transfer(host, amount);\r\n    }\r\n\r\n    //[1]   \r\n    //   \r\n    function _updateReward (address host) internal {\r\n\r\n        uint256 elapsed = _elapsedBlock(UPDATED_TIMESTAMP[host]);\r\n        \r\n        if(elapsed <= 0){\r\n            return;\r\n        }\r\n        \r\n        uint256 stakeAmount = USER_STAKED_AMOUNT[host];\r\n        if(stakeAmount <= 0){\r\n            return;\r\n        }\r\n        UPDATED_TIMESTAMP[host] = block.timestamp;\r\n        uint256 baseEarned = _calculateEarn(elapsed, stakeAmount);\r\n\r\n        if(REMAIN_REWARD >= baseEarned){\r\n\r\n            USER_REWARD[host] = baseEarned.mul(95).div(100).add(USER_REWARD[host]);\r\n            USER_REWARD[TEAM_POOL] = baseEarned.mul(5).div(100).add(USER_REWARD[TEAM_POOL]);\r\n            REMAIN_REWARD = REMAIN_REWARD.sub(baseEarned);\r\n        }else{\r\n            if(REMAIN_REWARD > 0){\r\n                uint256 remainAll = REMAIN_REWARD;\r\n                REMAIN_REWARD = 0;\r\n                USER_REWARD[host] = remainAll.mul(95).div(100).add(USER_REWARD[host]);\r\n                USER_REWARD[TEAM_POOL] = remainAll.mul(5).div(100).add(USER_REWARD[TEAM_POOL]);\r\n     \r\n            }\r\n            _setIsRunningPool(false);\r\n        }\r\n    }\r\n\r\n    //  \r\n    function _elapsedBlock (uint256 updated) internal view returns (uint256) {\r\n        uint256 open = updated; // \r\n        uint256 close = block.timestamp; //\r\n        return open >= close ? 0 : close - open;   \r\n    }\r\n\r\n    // \r\n    function _registAddress (address host) internal {\r\n        if(IS_REGISTED[host]){return;}\r\n\r\n        IS_REGISTED[host] = true;\r\n        CONTRACT_LIST.push(host);\r\n    }\r\n\r\n    //\r\n    function _endPool(address owner) internal {\r\n        _updateAllReward();\r\n\r\n        //First User Stake & Reward withdraw\r\n        for(uint256 i=0; i<CONTRACT_LIST.length; i++){\r\n            address account = CONTRACT_LIST[i];\r\n            //   \r\n            if(USER_REWARD[account] > 0){\r\n                uint256 rewards = USER_REWARD[account];\r\n                USER_REWARD[account] = 0;\r\n                rewardToken.transfer(account, rewards);\r\n            }\r\n            //    \r\n            _stake_token_withdraw(account, USER_STAKED_AMOUNT[account]);\r\n        }   \r\n\r\n        //Second Team Reward withdraw\r\n        if(TEAM_POOL != address(0)){\r\n            if(USER_REWARD[TEAM_POOL] > 0){\r\n                uint256 rewards = USER_REWARD[TEAM_POOL];\r\n                USER_REWARD[TEAM_POOL] = 0;\r\n                rewardToken.transfer(TEAM_POOL, rewards);\r\n            }\r\n        }\r\n\r\n        //Third Owner saved reward withdraw\r\n        uint256 endRewardAmount = rewardToken.balanceOf(address(this));\r\n        if(endRewardAmount > 0){\r\n            rewardToken.transfer(owner, endRewardAmount);\r\n        }\r\n\r\n        //Third End\r\n        _setIsRunningPool(false);\r\n    }\r\n\r\n    function _updatePool() internal {\r\n        _updateAllReward();\r\n    }\r\n\r\n\r\n    function rewordForSecond(address account) public view returns (uint256){\r\n        uint256 stakeAmount = USER_STAKED_AMOUNT[account];\r\n        if(stakeAmount <= 0){\r\n            return 0;\r\n        }\r\n\r\n        uint256 oneYearReward = stakeAmount.mul(REWARD_RATE).div(100);\r\n        uint256 oneDayReward = oneYearReward.div(365);\r\n        uint256 oneTimesReward = oneDayReward.div(24);\r\n        uint256 oneMinReward = oneTimesReward.div(60);\r\n        uint256 oneSeconReward = oneMinReward.div(60);\r\n        return oneSeconReward;        \r\n    }\r\n\r\n    function userReward(address account) public view returns (uint256){\r\n       return USER_REWARD[account];\r\n    }\r\n    \r\n    function teamPoolAddress() public view returns (address){\r\n       return TEAM_POOL;\r\n    }\r\n\r\n    //  \r\n    function _updateAllReward () internal {\r\n        for(uint256 i=0; i<CONTRACT_LIST.length; i++){\r\n            if(IS_RUNNING_POOL){\r\n                _updateReward(CONTRACT_LIST[i]);\r\n            }\r\n        }\r\n    }\r\n\r\n    //     \r\n    function _calculateEarn (uint256 elapsed, uint256 staked) internal view returns (uint256) {\r\n        if(staked == 0){return 0;}\r\n        \r\n        if(elapsed <= 0){return 0;}\r\n\r\n        uint256 oneYearReward = staked.mul(REWARD_RATE).div(100);\r\n        uint256 oneDayReward = oneYearReward.div(365);\r\n        uint256 oneTimesReward = oneDayReward.div(24);\r\n        uint256 oneMinReward = oneTimesReward.div(60);\r\n        uint256 oneSeconReward = oneMinReward.div(60);\r\n        uint256 secondReward = oneSeconReward.mul(elapsed); //  \r\n     \r\n        return secondReward;\r\n    }\r\n\r\n    function _changeRewardRate (uint256 _rate) internal {\r\n        _updateAllReward();\r\n        REWARD_RATE = _rate;\r\n    }\r\n\r\n    function contractListCount () external view returns (uint256) {\r\n        return CONTRACT_LIST.length;\r\n    }\r\n    \r\n    //     \r\n    function userStakeTime (address account) external view returns (uint256) {\r\n        return USER_STAKE_TIME[account];\r\n    }\r\n    \r\n}\r\n\r\ncontract DreamStakePool is Ownable, TokenRewardPool{\r\n    \r\n    // string private constant _name = \"PoolName\";\r\n    // uint256 private constant _rate = 20; //%\r\n    // address private constant _rewardToken = \"\"; // \r\n    // address private constant _stakeToken = \"\"; // \r\n    // address private constant _teamPool = \"\"; //  \r\n    // constructor () TokenRewardPool(_rate, _rewardToken, _stakeToken, _teamPool) onlyOwner public{\r\n    //     //extend to do\r\n    // }\r\n\r\n////////////// TesetNet /////////////////\r\n    string private name = \"PoolName\";\r\n       \r\n    constructor (   \r\n        string memory _name,//Pool Name\r\n        uint256 _rate, // \r\n        address _rewardToken, // \r\n        address _stakeToken, // \r\n        address _teamPool) TokenRewardPool(_rate, _rewardToken, _stakeToken, _teamPool) onlyOwner public{\r\n        name = _name;\r\n    }\r\n\r\n    //[1] init :   \r\n    function initTotalReward () public onlyOwner {\r\n        _initPool();\r\n    }\r\n\r\n    function endPool() public onlyOwner {\r\n          _endPool(owner());\r\n    }\r\n\r\n    function changeRewardRate (uint256 rate) public onlyOwner {\r\n       _changeRewardRate(rate);\r\n    }\r\n\r\n    function updatePool () public onlyOwner {\r\n       _updatePool();\r\n    }  \r\n}",
  "sourcePath": "C:/ETHER/2.GitHub/Token-Pool/contracts/DreamStakePool.sol",
  "compiler": {
    "name": "solc",
    "version": "0.5.10+commit.5a6ea5b1.Emscripten.clang"
  },
  "schemaVersion": "3.3.2",
  "updatedAt": "2020-12-06T04:48:24.833Z",
  "networkType": "ethereum",
  "devdoc": {
    "methods": {
      "isOwner()": {
        "details": "Returns true if the caller is the current owner.\r"
      },
      "owner()": {
        "details": "Returns the address of the current owner.\r"
      },
      "transferOwnership(address)": {
        "details": "Transfers ownership of the contract to a new account (`newOwner`).\r Can only be called by the current owner.\r"
      }
    }
  },
  "userdoc": {
    "methods": {}
  }
}