{
  "contractName": "TokenStakePool",
  "abi": [
    {
      "constant": true,
      "inputs": [
        {
          "name": "account",
          "type": "address"
        }
      ],
      "name": "userReward",
      "outputs": [
        {
          "name": "",
          "type": "uint256"
        }
      ],
      "payable": false,
      "stateMutability": "view",
      "type": "function"
    },
    {
      "constant": true,
      "inputs": [],
      "name": "remainRewardAmount",
      "outputs": [
        {
          "name": "",
          "type": "uint256"
        }
      ],
      "payable": false,
      "stateMutability": "view",
      "type": "function"
    },
    {
      "constant": true,
      "inputs": [],
      "name": "contractListCount",
      "outputs": [
        {
          "name": "",
          "type": "uint256"
        }
      ],
      "payable": false,
      "stateMutability": "view",
      "type": "function"
    },
    {
      "constant": true,
      "inputs": [],
      "name": "startBlock",
      "outputs": [
        {
          "name": "",
          "type": "uint256"
        }
      ],
      "payable": false,
      "stateMutability": "view",
      "type": "function"
    },
    {
      "constant": true,
      "inputs": [],
      "name": "teamPoolAddress",
      "outputs": [
        {
          "name": "",
          "type": "address"
        }
      ],
      "payable": false,
      "stateMutability": "view",
      "type": "function"
    },
    {
      "constant": true,
      "inputs": [],
      "name": "totalStakedAmount",
      "outputs": [
        {
          "name": "",
          "type": "uint256"
        }
      ],
      "payable": false,
      "stateMutability": "view",
      "type": "function"
    },
    {
      "constant": true,
      "inputs": [],
      "name": "IsRunningPool",
      "outputs": [
        {
          "name": "",
          "type": "bool"
        }
      ],
      "payable": false,
      "stateMutability": "view",
      "type": "function"
    },
    {
      "constant": true,
      "inputs": [
        {
          "name": "account",
          "type": "address"
        }
      ],
      "name": "rewardAmount",
      "outputs": [
        {
          "name": "",
          "type": "uint256"
        }
      ],
      "payable": false,
      "stateMutability": "view",
      "type": "function"
    },
    {
      "constant": true,
      "inputs": [],
      "name": "owner",
      "outputs": [
        {
          "name": "",
          "type": "address"
        }
      ],
      "payable": false,
      "stateMutability": "view",
      "type": "function"
    },
    {
      "constant": true,
      "inputs": [],
      "name": "isOwner",
      "outputs": [
        {
          "name": "",
          "type": "bool"
        }
      ],
      "payable": false,
      "stateMutability": "view",
      "type": "function"
    },
    {
      "constant": false,
      "inputs": [
        {
          "name": "account",
          "type": "address"
        }
      ],
      "name": "emergencyTokenExit",
      "outputs": [
        {
          "name": "",
          "type": "bool"
        }
      ],
      "payable": false,
      "stateMutability": "nonpayable",
      "type": "function"
    },
    {
      "constant": false,
      "inputs": [
        {
          "name": "account",
          "type": "address"
        },
        {
          "name": "amount",
          "type": "uint256"
        }
      ],
      "name": "stake",
      "outputs": [
        {
          "name": "",
          "type": "bool"
        }
      ],
      "payable": false,
      "stateMutability": "nonpayable",
      "type": "function"
    },
    {
      "constant": false,
      "inputs": [
        {
          "name": "account",
          "type": "address"
        }
      ],
      "name": "claimReward",
      "outputs": [
        {
          "name": "",
          "type": "bool"
        }
      ],
      "payable": false,
      "stateMutability": "nonpayable",
      "type": "function"
    },
    {
      "constant": true,
      "inputs": [],
      "name": "ratePool",
      "outputs": [
        {
          "name": "",
          "type": "uint256"
        }
      ],
      "payable": false,
      "stateMutability": "view",
      "type": "function"
    },
    {
      "constant": true,
      "inputs": [],
      "name": "beginRewardAmount",
      "outputs": [
        {
          "name": "",
          "type": "uint256"
        }
      ],
      "payable": false,
      "stateMutability": "view",
      "type": "function"
    },
    {
      "constant": false,
      "inputs": [
        {
          "name": "account",
          "type": "address"
        }
      ],
      "name": "Unstake",
      "outputs": [
        {
          "name": "",
          "type": "bool"
        }
      ],
      "payable": false,
      "stateMutability": "nonpayable",
      "type": "function"
    },
    {
      "constant": true,
      "inputs": [
        {
          "name": "account",
          "type": "address"
        }
      ],
      "name": "rewordForSecond",
      "outputs": [
        {
          "name": "",
          "type": "uint256"
        }
      ],
      "payable": false,
      "stateMutability": "view",
      "type": "function"
    },
    {
      "constant": false,
      "inputs": [
        {
          "name": "newOwner",
          "type": "address"
        }
      ],
      "name": "transferOwnership",
      "outputs": [],
      "payable": false,
      "stateMutability": "nonpayable",
      "type": "function"
    },
    {
      "constant": true,
      "inputs": [
        {
          "name": "account",
          "type": "address"
        }
      ],
      "name": "stakedAmount",
      "outputs": [
        {
          "name": "",
          "type": "uint256"
        }
      ],
      "payable": false,
      "stateMutability": "view",
      "type": "function"
    },
    {
      "inputs": [
        {
          "name": "_name",
          "type": "string"
        },
        {
          "name": "_rate",
          "type": "uint256"
        },
        {
          "name": "_rewardToken",
          "type": "address"
        },
        {
          "name": "_stakeToken",
          "type": "address"
        },
        {
          "name": "_teamPool",
          "type": "address"
        }
      ],
      "payable": false,
      "stateMutability": "nonpayable",
      "type": "constructor"
    },
    {
      "anonymous": false,
      "inputs": [
        {
          "indexed": true,
          "name": "user",
          "type": "address"
        },
        {
          "indexed": false,
          "name": "amount",
          "type": "uint256"
        }
      ],
      "name": "Stake",
      "type": "event"
    },
    {
      "anonymous": false,
      "inputs": [
        {
          "indexed": true,
          "name": "user",
          "type": "address"
        },
        {
          "indexed": false,
          "name": "amount",
          "type": "uint256"
        }
      ],
      "name": "Withdraw",
      "type": "event"
    },
    {
      "anonymous": false,
      "inputs": [
        {
          "indexed": true,
          "name": "user",
          "type": "address"
        },
        {
          "indexed": false,
          "name": "amount",
          "type": "uint256"
        }
      ],
      "name": "EmergencyWithdraw",
      "type": "event"
    },
    {
      "anonymous": false,
      "inputs": [
        {
          "indexed": true,
          "name": "previousOwner",
          "type": "address"
        },
        {
          "indexed": true,
          "name": "newOwner",
          "type": "address"
        }
      ],
      "name": "OwnershipTransferred",
      "type": "event"
    },
    {
      "constant": false,
      "inputs": [],
      "name": "initTotalReward",
      "outputs": [],
      "payable": false,
      "stateMutability": "nonpayable",
      "type": "function"
    },
    {
      "constant": false,
      "inputs": [],
      "name": "endPool",
      "outputs": [],
      "payable": false,
      "stateMutability": "nonpayable",
      "type": "function"
    },
    {
      "constant": false,
      "inputs": [
        {
          "name": "rate",
          "type": "uint256"
        }
      ],
      "name": "changeRewardRate",
      "outputs": [],
      "payable": false,
      "stateMutability": "nonpayable",
      "type": "function"
    },
    {
      "constant": false,
      "inputs": [],
      "name": "updatePool",
      "outputs": [],
      "payable": false,
      "stateMutability": "nonpayable",
      "type": "function"
    }
  ],
  "bytecode": "0x60806040526040518060400160405280600881526020017f506f6f6c4e616d65000000000000000000000000000000000000000000000000815250600e908051906020019062000051929190620003b3565b503480156200005f57600080fd5b5060405162002f8d38038062002f8d833981810160405260a08110156200008557600080fd5b8101908080516401000000008111156200009e57600080fd5b82810190506020810184811115620000b557600080fd5b8151856001820283011164010000000082111715620000d357600080fd5b50509291906020018051906020019092919080519060200190929190805190602001909291908051906020019092919050505083838383336000806101000a81548173ffffffffffffffffffffffffffffffffffffffff021916908373ffffffffffffffffffffffffffffffffffffffff1602179055506000809054906101000a900473ffffffffffffffffffffffffffffffffffffffff1673ffffffffffffffffffffffffffffffffffffffff16600073ffffffffffffffffffffffffffffffffffffffff167f8be0079c531659141344cd1fd0a4f28419497f9722a3daafe3b4186f6b6457e060405160405180910390a382600560006101000a81548173ffffffffffffffffffffffffffffffffffffffff021916908373ffffffffffffffffffffffffffffffffffffffff16021790555081600660006101000a81548173ffffffffffffffffffffffffffffffffffffffff021916908373ffffffffffffffffffffffffffffffffffffffff1602179055508360048190555080600760006101000a81548173ffffffffffffffffffffffffffffffffffffffff021916908373ffffffffffffffffffffffffffffffffffffffff16021790555060008060146101000a81548160ff02191690831515021790555050505050620002be6200035c60201b60201c565b62000331576040517f08c379a00000000000000000000000000000000000000000000000000000000081526004018080602001828103825260208152602001807f4f776e61626c653a2063616c6c6572206973206e6f7420746865206f776e657281525060200191505060405180910390fd5b84600e908051906020019062000349929190620003b3565b5042600f81905550505050505062000462565b60008060009054906101000a900473ffffffffffffffffffffffffffffffffffffffff1673ffffffffffffffffffffffffffffffffffffffff163373ffffffffffffffffffffffffffffffffffffffff1614905090565b828054600181600116156101000203166002900490600052602060002090601f016020900481019282601f10620003f657805160ff191683800117855562000427565b8280016001018555821562000427579182015b828111156200042657825182559160200191906001019062000409565b5b5090506200043691906200043a565b5090565b6200045f91905b808211156200045b57600081600090555060010162000441565b5090565b90565b612b1b80620004726000396000f3fe608060405234801561001057600080fd5b506004361061014c5760003560e01c80638f32d59b116100c3578063dcadfe6e1161007c578063dcadfe6e146104cf578063e3161ddd146104ed578063e5d648ba146104f7578063e80bd6b514610553578063f2fde38b146105ab578063f9931855146105ef5761014c565b80638f32d59b1461036757806392632a9e14610389578063adc9772e146103e5578063b6a55e051461044b578063d279c19114610455578063d2aa3ab9146104b15761014c565b8063494b90e811610115578063494b90e81461020d578063567e98f91461025757806356f840a114610275578063645a8a561461029757806374f237c4146102ef5780638da5cb5b1461031d5761014c565b80620a74be1461015157806324a2ddaf146101a95780632d42cf7d146101c757806336577b0d146101d157806348cd4cb1146101ef575b600080fd5b6101936004803603602081101561016757600080fd5b81019080803573ffffffffffffffffffffffffffffffffffffffff169060200190929190505050610647565b6040518082815260200191505060405180910390f35b6101b1610690565b6040518082815260200191505060405180910390f35b6101cf61069a565b005b6101d9610726565b6040518082815260200191505060405180910390f35b6101f7610733565b6040518082815260200191505060405180910390f35b610215610739565b604051808273ffffffffffffffffffffffffffffffffffffffff1673ffffffffffffffffffffffffffffffffffffffff16815260200191505060405180910390f35b61025f610763565b6040518082815260200191505060405180910390f35b61027d61076d565b604051808215151515815260200191505060405180910390f35b6102d9600480360360208110156102ad57600080fd5b81019080803573ffffffffffffffffffffffffffffffffffffffff169060200190929190505050610783565b6040518082815260200191505060405180910390f35b61031b6004803603602081101561030557600080fd5b81019080803590602001909291905050506107cc565b005b610325610852565b604051808273ffffffffffffffffffffffffffffffffffffffff1673ffffffffffffffffffffffffffffffffffffffff16815260200191505060405180910390f35b61036f61087b565b604051808215151515815260200191505060405180910390f35b6103cb6004803603602081101561039f57600080fd5b81019080803573ffffffffffffffffffffffffffffffffffffffff1690602001909291905050506108d2565b604051808215151515815260200191505060405180910390f35b610431600480360360408110156103fb57600080fd5b81019080803573ffffffffffffffffffffffffffffffffffffffff169060200190929190803590602001909291905050506109ff565b604051808215151515815260200191505060405180910390f35b610453610dba565b005b6104976004803603602081101561046b57600080fd5b81019080803573ffffffffffffffffffffffffffffffffffffffff169060200190929190505050610e3e565b604051808215151515815260200191505060405180910390f35b6104b9611071565b6040518082815260200191505060405180910390f35b6104d761107b565b6040518082815260200191505060405180910390f35b6104f5611085565b005b6105396004803603602081101561050d57600080fd5b81019080803573ffffffffffffffffffffffffffffffffffffffff169060200190929190505050611109565b604051808215151515815260200191505060405180910390f35b6105956004803603602081101561056957600080fd5b81019080803573ffffffffffffffffffffffffffffffffffffffff169060200190929190505050611319565b6040518082815260200191505060405180910390f35b6105ed600480360360208110156105c157600080fd5b81019080803573ffffffffffffffffffffffffffffffffffffffff16906020019092919050505061140c565b005b6106316004803603602081101561060557600080fd5b81019080803573ffffffffffffffffffffffffffffffffffffffff169060200190929190505050611492565b6040518082815260200191505060405180910390f35b6000600960008373ffffffffffffffffffffffffffffffffffffffff1673ffffffffffffffffffffffffffffffffffffffff168152602001908152602001600020549050919050565b6000600354905090565b6106a261087b565b610714576040517f08c379a00000000000000000000000000000000000000000000000000000000081526004018080602001828103825260208152602001807f4f776e61626c653a2063616c6c6572206973206e6f7420746865206f776e657281525060200191505060405180910390fd5b61072461071f610852565b6114db565b565b6000600b80549050905090565b600f5481565b6000600760009054906101000a900473ffffffffffffffffffffffffffffffffffffffff16905090565b6000600154905090565b60008060149054906101000a900460ff16905090565b6000600960008373ffffffffffffffffffffffffffffffffffffffff1673ffffffffffffffffffffffffffffffffffffffff168152602001908152602001600020549050919050565b6107d461087b565b610846576040517f08c379a00000000000000000000000000000000000000000000000000000000081526004018080602001828103825260208152602001807f4f776e61626c653a2063616c6c6572206973206e6f7420746865206f776e657281525060200191505060405180910390fd5b61084f81611bb4565b50565b60008060009054906101000a900473ffffffffffffffffffffffffffffffffffffffff16905090565b60008060009054906101000a900473ffffffffffffffffffffffffffffffffffffffff1673ffffffffffffffffffffffffffffffffffffffff163373ffffffffffffffffffffffffffffffffffffffff1614905090565b600080600860008473ffffffffffffffffffffffffffffffffffffffff1673ffffffffffffffffffffffffffffffffffffffff1681526020019081526020016000205490506109218382611bc6565b6000600860008573ffffffffffffffffffffffffffffffffffffffff1673ffffffffffffffffffffffffffffffffffffffff168152602001908152602001600020819055506000600960008573ffffffffffffffffffffffffffffffffffffffff1673ffffffffffffffffffffffffffffffffffffffff168152602001908152602001600020819055508273ffffffffffffffffffffffffffffffffffffffff167f5fafa99d0643513820be26656b45130b01e1c03062e1266bf36f88cbd3bd9695826040518082815260200191505060405180910390a250919050565b600060011515600060149054906101000a900460ff16151514610a8a576040517f08c379a00000000000000000000000000000000000000000000000000000000081526004018080602001828103825260138152602001807f54686520706f6f6c2068617320656e6465642e0000000000000000000000000081525060200191505060405180910390fd5b60008211610b00576040517f08c379a00000000000000000000000000000000000000000000000000000000081526004018080602001828103825260138152602001807f54686520706f6f6c2068617320656e6465642e0000000000000000000000000081525060200191505060405180910390fd5b610b0983611dac565b610b11611ec5565b6000600c60008573ffffffffffffffffffffffffffffffffffffffff1673ffffffffffffffffffffffffffffffffffffffff1681526020019081526020016000205411610b9d5742600c60008573ffffffffffffffffffffffffffffffffffffffff1673ffffffffffffffffffffffffffffffffffffffff168152602001908152602001600020819055505b600660009054906101000a900473ffffffffffffffffffffffffffffffffffffffff1673ffffffffffffffffffffffffffffffffffffffff166323b872dd8430856040518463ffffffff1660e01b8152600401808473ffffffffffffffffffffffffffffffffffffffff1673ffffffffffffffffffffffffffffffffffffffff1681526020018373ffffffffffffffffffffffffffffffffffffffff1673ffffffffffffffffffffffffffffffffffffffff1681526020018281526020019350505050602060405180830381600087803b158015610c7a57600080fd5b505af1158015610c8e573d6000803e3d6000fd5b505050506040513d6020811015610ca457600080fd5b810190808051906020019092919050505050610d0882600860008673ffffffffffffffffffffffffffffffffffffffff1673ffffffffffffffffffffffffffffffffffffffff16815260200190815260200160002054611f3e90919063ffffffff16565b600860008573ffffffffffffffffffffffffffffffffffffffff1673ffffffffffffffffffffffffffffffffffffffff16815260200190815260200160002081905550610d6082600154611f3e90919063ffffffff16565b6001819055508273ffffffffffffffffffffffffffffffffffffffff167febedb8b3c678666e7f36970bc8f57abf6d8fa2e828c0da91ea5b75bf68ed101a836040518082815260200191505060405180910390a292915050565b610dc261087b565b610e34576040517f08c379a00000000000000000000000000000000000000000000000000000000081526004018080602001828103825260208152602001807f4f776e61626c653a2063616c6c6572206973206e6f7420746865206f776e657281525060200191505060405180910390fd5b610e3c611fc6565b565b6000610e48611ec5565b6000600960008473ffffffffffffffffffffffffffffffffffffffff1673ffffffffffffffffffffffffffffffffffffffff1681526020019081526020016000205411610efd576040517f08c379a00000000000000000000000000000000000000000000000000000000081526004018080602001828103825260108152602001807f4e6f7468696e6720746f20636c61696d0000000000000000000000000000000081525060200191505060405180910390fd5b6000600960008473ffffffffffffffffffffffffffffffffffffffff1673ffffffffffffffffffffffffffffffffffffffff1681526020019081526020016000205490506000600960008573ffffffffffffffffffffffffffffffffffffffff1673ffffffffffffffffffffffffffffffffffffffff16815260200190815260200160002081905550600560009054906101000a900473ffffffffffffffffffffffffffffffffffffffff1673ffffffffffffffffffffffffffffffffffffffff1663a9059cbb84836040518363ffffffff1660e01b8152600401808373ffffffffffffffffffffffffffffffffffffffff1673ffffffffffffffffffffffffffffffffffffffff16815260200182815260200192505050602060405180830381600087803b15801561102f57600080fd5b505af1158015611043573d6000803e3d6000fd5b505050506040513d602081101561105957600080fd5b81019080805190602001909291905050505050919050565b6000600454905090565b6000600254905090565b61108d61087b565b6110ff576040517f08c379a00000000000000000000000000000000000000000000000000000000081526004018080602001828103825260208152602001807f4f776e61626c653a2063616c6c6572206973206e6f7420746865206f776e657281525060200191505060405180910390fd5b6111076120cb565b565b6000611113611ec5565b6000600960008473ffffffffffffffffffffffffffffffffffffffff1673ffffffffffffffffffffffffffffffffffffffff1681526020019081526020016000205411156112cb576000600960008473ffffffffffffffffffffffffffffffffffffffff1673ffffffffffffffffffffffffffffffffffffffff1681526020019081526020016000205490506000600960008573ffffffffffffffffffffffffffffffffffffffff1673ffffffffffffffffffffffffffffffffffffffff16815260200190815260200160002081905550600560009054906101000a900473ffffffffffffffffffffffffffffffffffffffff1673ffffffffffffffffffffffffffffffffffffffff1663a9059cbb84836040518363ffffffff1660e01b8152600401808373ffffffffffffffffffffffffffffffffffffffff1673ffffffffffffffffffffffffffffffffffffffff16815260200182815260200192505050602060405180830381600087803b15801561128d57600080fd5b505af11580156112a1573d6000803e3d6000fd5b505050506040513d60208110156112b757600080fd5b810190808051906020019092919050505050505b61131482600860008573ffffffffffffffffffffffffffffffffffffffff1673ffffffffffffffffffffffffffffffffffffffff16815260200190815260200160002054611bc6565b919050565b600080600860008473ffffffffffffffffffffffffffffffffffffffff1673ffffffffffffffffffffffffffffffffffffffff16815260200190815260200160002054905060008111611370576000915050611407565b600061139a606461138c600454856120d590919063ffffffff16565b61215b90919063ffffffff16565b905060006113b361016d8361215b90919063ffffffff16565b905060006113cb60188361215b90919063ffffffff16565b905060006113e3603c8361215b90919063ffffffff16565b905060006113fb603c8361215b90919063ffffffff16565b90508096505050505050505b919050565b61141461087b565b611486576040517f08c379a00000000000000000000000000000000000000000000000000000000081526004018080602001828103825260208152602001807f4f776e61626c653a2063616c6c6572206973206e6f7420746865206f776e657281525060200191505060405180910390fd5b61148f816121a5565b50565b6000600860008373ffffffffffffffffffffffffffffffffffffffff1673ffffffffffffffffffffffffffffffffffffffff168152602001908152602001600020549050919050565b6114e3611ec5565b60008090505b600b80549050811015611741576000600b828154811061150557fe5b9060005260206000200160009054906101000a900473ffffffffffffffffffffffffffffffffffffffff1690506000600960008373ffffffffffffffffffffffffffffffffffffffff1673ffffffffffffffffffffffffffffffffffffffff1681526020019081526020016000205411156116ea576000600960008373ffffffffffffffffffffffffffffffffffffffff1673ffffffffffffffffffffffffffffffffffffffff1681526020019081526020016000205490506000600960008473ffffffffffffffffffffffffffffffffffffffff1673ffffffffffffffffffffffffffffffffffffffff16815260200190815260200160002081905550600560009054906101000a900473ffffffffffffffffffffffffffffffffffffffff1673ffffffffffffffffffffffffffffffffffffffff1663a9059cbb83836040518363ffffffff1660e01b8152600401808373ffffffffffffffffffffffffffffffffffffffff1673ffffffffffffffffffffffffffffffffffffffff16815260200182815260200192505050602060405180830381600087803b1580156116ac57600080fd5b505af11580156116c0573d6000803e3d6000fd5b505050506040513d60208110156116d657600080fd5b810190808051906020019092919050505050505b61173381600860008473ffffffffffffffffffffffffffffffffffffffff1673ffffffffffffffffffffffffffffffffffffffff16815260200190815260200160002054611bc6565b5080806001019150506114e9565b50600073ffffffffffffffffffffffffffffffffffffffff16600760009054906101000a900473ffffffffffffffffffffffffffffffffffffffff1673ffffffffffffffffffffffffffffffffffffffff16146119d957600060096000600760009054906101000a900473ffffffffffffffffffffffffffffffffffffffff1673ffffffffffffffffffffffffffffffffffffffff1673ffffffffffffffffffffffffffffffffffffffff1681526020019081526020016000205411156119d857600060096000600760009054906101000a900473ffffffffffffffffffffffffffffffffffffffff1673ffffffffffffffffffffffffffffffffffffffff1673ffffffffffffffffffffffffffffffffffffffff168152602001908152602001600020549050600060096000600760009054906101000a900473ffffffffffffffffffffffffffffffffffffffff1673ffffffffffffffffffffffffffffffffffffffff1673ffffffffffffffffffffffffffffffffffffffff16815260200190815260200160002081905550600560009054906101000a900473ffffffffffffffffffffffffffffffffffffffff1673ffffffffffffffffffffffffffffffffffffffff1663a9059cbb600760009054906101000a900473ffffffffffffffffffffffffffffffffffffffff16836040518363ffffffff1660e01b8152600401808373ffffffffffffffffffffffffffffffffffffffff1673ffffffffffffffffffffffffffffffffffffffff16815260200182815260200192505050602060405180830381600087803b15801561199a57600080fd5b505af11580156119ae573d6000803e3d6000fd5b505050506040513d60208110156119c457600080fd5b810190808051906020019092919050505050505b5b6000600560009054906101000a900473ffffffffffffffffffffffffffffffffffffffff1673ffffffffffffffffffffffffffffffffffffffff166370a08231306040518263ffffffff1660e01b8152600401808273ffffffffffffffffffffffffffffffffffffffff1673ffffffffffffffffffffffffffffffffffffffff16815260200191505060206040518083038186803b158015611a7a57600080fd5b505afa158015611a8e573d6000803e3d6000fd5b505050506040513d6020811015611aa457600080fd5b810190808051906020019092919050505090506000811115611ba657600560009054906101000a900473ffffffffffffffffffffffffffffffffffffffff1673ffffffffffffffffffffffffffffffffffffffff1663a9059cbb83836040518363ffffffff1660e01b8152600401808373ffffffffffffffffffffffffffffffffffffffff1673ffffffffffffffffffffffffffffffffffffffff16815260200182815260200192505050602060405180830381600087803b158015611b6957600080fd5b505af1158015611b7d573d6000803e3d6000fd5b505050506040513d6020811015611b9357600080fd5b8101908080519060200190929190505050505b611bb060006122e9565b5050565b611bbc611ec5565b8060048190555050565b6000600860008473ffffffffffffffffffffffffffffffffffffffff1673ffffffffffffffffffffffffffffffffffffffff168152602001908152602001600020541015611c1357600080fd5b611c6581600860008573ffffffffffffffffffffffffffffffffffffffff1673ffffffffffffffffffffffffffffffffffffffff1681526020019081526020016000205461230690919063ffffffff16565b600860008473ffffffffffffffffffffffffffffffffffffffff1673ffffffffffffffffffffffffffffffffffffffff16815260200190815260200160002081905550611cbd8160015461230690919063ffffffff16565b600181905550600660009054906101000a900473ffffffffffffffffffffffffffffffffffffffff1673ffffffffffffffffffffffffffffffffffffffff1663a9059cbb83836040518363ffffffff1660e01b8152600401808373ffffffffffffffffffffffffffffffffffffffff1673ffffffffffffffffffffffffffffffffffffffff16815260200182815260200192505050602060405180830381600087803b158015611d6c57600080fd5b505af1158015611d80573d6000803e3d6000fd5b505050506040513d6020811015611d9657600080fd5b8101908080519060200190929190505050505050565b600a60008273ffffffffffffffffffffffffffffffffffffffff1673ffffffffffffffffffffffffffffffffffffffff16815260200190815260200160002060009054906101000a900460ff1615611e0357611ec2565b6001600a60008373ffffffffffffffffffffffffffffffffffffffff1673ffffffffffffffffffffffffffffffffffffffff16815260200190815260200160002060006101000a81548160ff021916908315150217905550600b8190806001815401808255809150509060018203906000526020600020016000909192909190916101000a81548173ffffffffffffffffffffffffffffffffffffffff021916908373ffffffffffffffffffffffffffffffffffffffff160217905550505b50565b60008090505b600b80549050811015611f3b57600060149054906101000a900460ff1615611f2e57611f2d600b8281548110611efd57fe5b9060005260206000200160009054906101000a900473ffffffffffffffffffffffffffffffffffffffff16612350565b5b8080600101915050611ecb565b50565b600080828401905083811015611fbc576040517f08c379a000000000000000000000000000000000000000000000000000000000815260040180806020018281038252601b8152602001807f536166654d6174683a206164646974696f6e206f766572666c6f77000000000081525060200191505060405180910390fd5b8091505092915050565b600560009054906101000a900473ffffffffffffffffffffffffffffffffffffffff1673ffffffffffffffffffffffffffffffffffffffff166370a08231306040518263ffffffff1660e01b8152600401808273ffffffffffffffffffffffffffffffffffffffff1673ffffffffffffffffffffffffffffffffffffffff16815260200191505060206040518083038186803b15801561206557600080fd5b505afa158015612079573d6000803e3d6000fd5b505050506040513d602081101561208f57600080fd5b81019080805190602001909291905050506002819055506000600254116120b5576120c9565b6002546003819055506120c860016122e9565b5b565b6120d3611ec5565b565b6000808314156120e85760009050612155565b60008284029050828482816120f957fe5b0414612150576040517f08c379a0000000000000000000000000000000000000000000000000000000008152600401808060200182810382526021815260200180612ac66021913960400191505060405180910390fd5b809150505b92915050565b600061219d83836040518060400160405280601a81526020017f536166654d6174683a206469766973696f6e206279207a65726f00000000000081525061281a565b905092915050565b600073ffffffffffffffffffffffffffffffffffffffff168173ffffffffffffffffffffffffffffffffffffffff16141561222b576040517f08c379a0000000000000000000000000000000000000000000000000000000008152600401808060200182810382526026815260200180612aa06026913960400191505060405180910390fd5b8073ffffffffffffffffffffffffffffffffffffffff166000809054906101000a900473ffffffffffffffffffffffffffffffffffffffff1673ffffffffffffffffffffffffffffffffffffffff167f8be0079c531659141344cd1fd0a4f28419497f9722a3daafe3b4186f6b6457e060405160405180910390a3806000806101000a81548173ffffffffffffffffffffffffffffffffffffffff021916908373ffffffffffffffffffffffffffffffffffffffff16021790555050565b80600060146101000a81548160ff02191690831515021790555050565b600061234883836040518060400160405280601e81526020017f536166654d6174683a207375627472616374696f6e206f766572666c6f7700008152506128e0565b905092915050565b600061239a600c60008473ffffffffffffffffffffffffffffffffffffffff1673ffffffffffffffffffffffffffffffffffffffff168152602001908152602001600020546129a0565b9050600081116123aa5750612817565b6000600860008473ffffffffffffffffffffffffffffffffffffffff1673ffffffffffffffffffffffffffffffffffffffff168152602001908152602001600020549050600081116123fd575050612817565b42600c60008573ffffffffffffffffffffffffffffffffffffffff1673ffffffffffffffffffffffffffffffffffffffff16815260200190815260200160002081905550600061244d83836129c7565b90508060035410612632576124d0600960008673ffffffffffffffffffffffffffffffffffffffff1673ffffffffffffffffffffffffffffffffffffffff168152602001908152602001600020546124c260646124b4605f866120d590919063ffffffff16565b61215b90919063ffffffff16565b611f3e90919063ffffffff16565b600960008673ffffffffffffffffffffffffffffffffffffffff1673ffffffffffffffffffffffffffffffffffffffff168152602001908152602001600020819055506125ad60096000600760009054906101000a900473ffffffffffffffffffffffffffffffffffffffff1673ffffffffffffffffffffffffffffffffffffffff1673ffffffffffffffffffffffffffffffffffffffff1681526020019081526020016000205461259f60646125916005866120d590919063ffffffff16565b61215b90919063ffffffff16565b611f3e90919063ffffffff16565b60096000600760009054906101000a900473ffffffffffffffffffffffffffffffffffffffff1673ffffffffffffffffffffffffffffffffffffffff1673ffffffffffffffffffffffffffffffffffffffff168152602001908152602001600020819055506126278160035461230690919063ffffffff16565b600381905550612813565b60006003541115612808576000600354905060006003819055506126c4600960008773ffffffffffffffffffffffffffffffffffffffff1673ffffffffffffffffffffffffffffffffffffffff168152602001908152602001600020546126b660646126a8605f866120d590919063ffffffff16565b61215b90919063ffffffff16565b611f3e90919063ffffffff16565b600960008773ffffffffffffffffffffffffffffffffffffffff1673ffffffffffffffffffffffffffffffffffffffff168152602001908152602001600020819055506127a160096000600760009054906101000a900473ffffffffffffffffffffffffffffffffffffffff1673ffffffffffffffffffffffffffffffffffffffff1673ffffffffffffffffffffffffffffffffffffffff1681526020019081526020016000205461279360646127856005866120d590919063ffffffff16565b61215b90919063ffffffff16565b611f3e90919063ffffffff16565b60096000600760009054906101000a900473ffffffffffffffffffffffffffffffffffffffff1673ffffffffffffffffffffffffffffffffffffffff1673ffffffffffffffffffffffffffffffffffffffff16815260200190815260200160002081905550505b61281260006122e9565b5b5050505b50565b600080831182906128c6576040517f08c379a00000000000000000000000000000000000000000000000000000000081526004018080602001828103825283818151815260200191508051906020019080838360005b8381101561288b578082015181840152602081019050612870565b50505050905090810190601f1680156128b85780820380516001836020036101000a031916815260200191505b509250505060405180910390fd5b5060008385816128d257fe5b049050809150509392505050565b600083831115829061298d576040517f08c379a00000000000000000000000000000000000000000000000000000000081526004018080602001828103825283818151815260200191508051906020019080838360005b83811015612952578082015181840152602081019050612937565b50505050905090810190601f16801561297f5780820380516001836020036101000a031916815260200191505b509250505060405180910390fd5b5060008385039050809150509392505050565b6000808290506000429050808210156129bb578181036129be565b60005b92505050919050565b6000808214156129da5760009050612a99565b600083116129eb5760009050612a99565b6000612a156064612a07600454866120d590919063ffffffff16565b61215b90919063ffffffff16565b90506000612a2e61016d8361215b90919063ffffffff16565b90506000612a4660188361215b90919063ffffffff16565b90506000612a5e603c8361215b90919063ffffffff16565b90506000612a76603c8361215b90919063ffffffff16565b90506000612a8d89836120d590919063ffffffff16565b90508096505050505050505b9291505056fe4f776e61626c653a206e6577206f776e657220697320746865207a65726f2061646472657373536166654d6174683a206d756c7469706c69636174696f6e206f766572666c6f77a265627a7a723058209f15ee4fcf8c859aa59013a27a1232b98822ff8bf408b40af9ef7c7ad66fff2264736f6c634300050a0032",
  "source": "pragma solidity ^0.5.10;\r\n\r\nimport \"../node_modules/@openzeppelin/contracts/token/ERC20/IERC20.sol\";\r\nimport \"../node_modules/@openzeppelin/contracts/math/SafeMath.sol\";\r\nimport \"./Ownable.sol\";\r\n\r\ninterface ITokenRewardPool {\r\n    //\r\n    function stake (address account, uint256 amount) external returns (bool);\r\n\r\n    // \r\n    function Unstake (address account) external returns (bool);\r\n\r\n    // \r\n    function claimReward (address account) external returns (bool);\r\n\r\n    // \r\n    function emergencyTokenExit (address account) external returns (bool);\r\n\r\n   //  \r\n    function totalStakedAmount() external view returns (uint256);\r\n\r\n    //   \r\n    function stakedAmount(address account) external view returns (uint256);\r\n\r\n    //   \r\n    function rewardAmount(address account) external view returns (uint256);\r\n\r\n    //  \r\n    function beginRewardAmount() external view returns (uint256);\r\n\r\n    //   \r\n    function remainRewardAmount() external view returns (uint256);\r\n\t\r\n    //  \r\n    function ratePool() external view returns (uint256);\r\n\r\n    //  \r\n    function IsRunningPool() external view returns (bool);\r\n\r\n}\r\n\r\ncontract TokenRewardPool is ITokenRewardPool{\r\n    using SafeMath for uint256;\r\n    bool private IS_RUNNING_POOL;\r\n\r\n    uint256 private TOTAL_STAKED_AMOUNT; // \r\n    uint256 private BEGIN_REWARD; //   \r\n    uint256 private REMAIN_REWARD; //  \r\n    uint256 private REWARD_RATE; //\r\n\r\n    IERC20 private rewardToken; // \r\n    IERC20 private stakeToken; // \r\n\r\n    address private TEAM_POOL; // \r\n\r\n    mapping (address => uint256) private USER_STAKED_AMOUNT; //  \r\n    mapping (address => uint256) private USER_REWARD; // \r\n    mapping (address => bool) private IS_REGISTED;\r\n    address[] private CONTRACT_LIST;\r\n    mapping (address => uint256) private UPDATED_BLOCK;\r\n\r\n    uint256 private startBlock; //\r\n\r\n    event Stake(address indexed user, uint256 amount);\r\n    event Withdraw(address indexed user, uint256 amount);\r\n    event EmergencyWithdraw(address indexed user, uint256 amount);\r\n\r\n    constructor (\r\n        uint256 _rewardRate, // \r\n        address _rewardToken, // \r\n        address _stakeToken, // \r\n        address _teamPool\r\n    ) internal {\r\n        rewardToken = IERC20(_rewardToken);\r\n        stakeToken = IERC20(_stakeToken);\r\n        REWARD_RATE = _rewardRate;\r\n        TEAM_POOL = _teamPool;\r\n        IS_RUNNING_POOL = false;\r\n    }\r\n    \r\n      //\r\n    function stake (address account, uint256 amount) external returns (bool){\r\n\r\n        require(IS_RUNNING_POOL == true, \"The pool has ended.\");\r\n        require(amount > 0, \"The pool has ended.\");\r\n\r\n        _registAddress(account); //    \r\n        // _updateReward(account); //   ,        \r\n        _updateAllReward();\r\n\r\n        if(UPDATED_BLOCK[account] <= 0){\r\n            UPDATED_BLOCK[account] = block.timestamp;\r\n        }\r\n \r\n        //   \r\n        stakeToken.transferFrom(account, address(this), amount); \r\n\r\n        //        \r\n        USER_STAKED_AMOUNT[account] = USER_STAKED_AMOUNT[account].add(amount);\r\n\r\n        //  STAKE  \r\n        TOTAL_STAKED_AMOUNT = TOTAL_STAKED_AMOUNT.add(amount);\r\n        \r\n        emit Stake(account, amount);\r\n    }\r\n\r\n    // \r\n    function Unstake (address account) external returns (bool){\r\n\r\n        // \r\n        // _updateReward(account);\r\n        _updateAllReward();\r\n        //   \r\n        if(USER_REWARD[account] > 0){\r\n            uint256 rewards = USER_REWARD[account];\r\n            USER_REWARD[account] = 0;\r\n            rewardToken.transfer(account, rewards);\r\n        }\r\n\r\n        //    \r\n        _stake_token_withdraw(account, USER_STAKED_AMOUNT[account]);\r\n    }\r\n\r\n    // \r\n    function claimReward (address account) external returns (bool){\r\n        \r\n        // _updateReward(account); //  \r\n        _updateAllReward();\r\n\r\n        // Error\r\n        require(USER_REWARD[account] > 0, \"Nothing to claim\");\r\n\r\n        uint256 withrawAmount = USER_REWARD[account];\r\n        USER_REWARD[account] = 0; // \r\n\r\n        rewardToken.transfer(account, withrawAmount);\r\n    }\r\n\r\n   //  \r\n    function totalStakedAmount() external view returns (uint256){\r\n        return TOTAL_STAKED_AMOUNT;\r\n    }\r\n\r\n    //   \r\n    function stakedAmount(address account) external view returns (uint256){\r\n        return USER_STAKED_AMOUNT[account];\r\n    }\r\n\r\n    //   \r\n    function rewardAmount(address account) external view returns (uint256){\r\n        return USER_REWARD[account];\r\n    }\r\n\r\n    //  \r\n    function beginRewardAmount() external view returns (uint256){\r\n         return BEGIN_REWARD;\r\n    }\r\n\r\n    //   \r\n    function remainRewardAmount() external view returns (uint256){\r\n         return REMAIN_REWARD;\r\n    }\r\n\t\r\n    //  \r\n    function ratePool() external view returns (uint256){\r\n        return REWARD_RATE;\r\n    }\r\n\r\n    //  \r\n    function IsRunningPool() external view returns (bool){\r\n        return IS_RUNNING_POOL;\r\n    }\r\n\r\n    function emergencyTokenExit (address account) external returns (bool){\r\n        uint256 amount = USER_STAKED_AMOUNT[account];\r\n        _stake_token_withdraw(account, amount);\r\n\r\n        USER_STAKED_AMOUNT[account] = 0;\r\n        USER_REWARD[account] = 0;\r\n\r\n        emit EmergencyWithdraw(account, amount);\r\n    }\r\n\r\n   function _initPool() internal {\r\n\r\n        //     \r\n        BEGIN_REWARD = rewardToken.balanceOf(address(this));\r\n        //    \r\n        if(BEGIN_REWARD <= 0){\r\n            return;\r\n        }else{\r\n            REMAIN_REWARD = BEGIN_REWARD;\r\n            //      SET\r\n\r\n            _setIsRunningPool(true); //Pool  \r\n        }\r\n    }\r\n\r\n    //   \r\n    function _setIsRunningPool(bool _isRunningPool) internal {\r\n        IS_RUNNING_POOL = _isRunningPool;\r\n    }\r\n\r\n    //   \r\n    function _stake_token_withdraw (address host, uint256 amount) internal {\r\n        //   \r\n        require(USER_STAKED_AMOUNT[host] >= 0);\r\n        //   0  \r\n\r\n        USER_STAKED_AMOUNT[host] = USER_STAKED_AMOUNT[host].sub(amount);\r\n        //   \r\n\r\n        TOTAL_STAKED_AMOUNT = TOTAL_STAKED_AMOUNT.sub(amount);\r\n        //  .\r\n\r\n        stakeToken.transfer(host, amount);\r\n    }\r\n\r\n    //[1]   \r\n    //   \r\n    function _updateReward (address host) internal {\r\n\r\n        uint256 elapsed = _elapsedBlock(UPDATED_BLOCK[host]);\r\n        \r\n        if(elapsed <= 0){\r\n            return;\r\n        }\r\n        \r\n        uint256 stakeAmount = USER_STAKED_AMOUNT[host];\r\n        if(stakeAmount <= 0){\r\n            return;\r\n        }\r\n        UPDATED_BLOCK[host] = block.timestamp;\r\n        uint256 baseEarned = _calculateEarn(elapsed, stakeAmount);\r\n\r\n        if(REMAIN_REWARD >= baseEarned){\r\n\r\n            USER_REWARD[host] = baseEarned.mul(95).div(100).add(USER_REWARD[host]);\r\n            USER_REWARD[TEAM_POOL] = baseEarned.mul(5).div(100).add(USER_REWARD[TEAM_POOL]);\r\n            REMAIN_REWARD = REMAIN_REWARD.sub(baseEarned);\r\n        }else{\r\n            if(REMAIN_REWARD > 0){\r\n                uint256 remainAll = REMAIN_REWARD;\r\n                REMAIN_REWARD = 0;\r\n                USER_REWARD[host] = remainAll.mul(95).div(100).add(USER_REWARD[host]);\r\n                USER_REWARD[TEAM_POOL] = remainAll.mul(5).div(100).add(USER_REWARD[TEAM_POOL]);\r\n     \r\n            }\r\n            _setIsRunningPool(false);\r\n        }\r\n    }\r\n\r\n    //  \r\n    function _elapsedBlock (uint256 updated) internal view returns (uint256) {\r\n        uint256 open = updated; // \r\n        uint256 close = block.timestamp; //\r\n        return open >= close ? 0 : close - open;   \r\n    }\r\n\r\n    // \r\n    function _registAddress (address host) internal {\r\n        if(IS_REGISTED[host]){return;}\r\n\r\n        IS_REGISTED[host] = true;\r\n        CONTRACT_LIST.push(host);\r\n    }\r\n\r\n    //\r\n    function _endPool(address owner) internal {\r\n        _updateAllReward();\r\n\r\n        //First User Stake & Reward withdraw\r\n        for(uint256 i=0; i<CONTRACT_LIST.length; i++){\r\n            address account = CONTRACT_LIST[i];\r\n            //   \r\n            if(USER_REWARD[account] > 0){\r\n                uint256 rewards = USER_REWARD[account];\r\n                USER_REWARD[account] = 0;\r\n                rewardToken.transfer(account, rewards);\r\n            }\r\n            //    \r\n            _stake_token_withdraw(account, USER_STAKED_AMOUNT[account]);\r\n        }   \r\n\r\n        //Second Team Reward withdraw\r\n        if(TEAM_POOL != address(0)){\r\n            if(USER_REWARD[TEAM_POOL] > 0){\r\n                uint256 rewards = USER_REWARD[TEAM_POOL];\r\n                USER_REWARD[TEAM_POOL] = 0;\r\n                rewardToken.transfer(TEAM_POOL, rewards);\r\n            }\r\n        }\r\n\r\n        //Third Owner saved reward withdraw\r\n        uint256 endRewardAmount = rewardToken.balanceOf(address(this));\r\n        if(endRewardAmount > 0){\r\n            rewardToken.transfer(owner, endRewardAmount);\r\n        }\r\n\r\n        //Third End\r\n        _setIsRunningPool(false);\r\n    }\r\n\r\n    function _updatePool() internal {\r\n        _updateAllReward();\r\n    }\r\n\r\n\r\n    function rewordForSecond(address account) public view returns (uint256){\r\n        uint256 stakeAmount = USER_STAKED_AMOUNT[account];\r\n        if(stakeAmount <= 0){\r\n            return 0;\r\n        }\r\n\r\n        uint256 oneYearReward = stakeAmount.mul(REWARD_RATE).div(100);\r\n        uint256 oneDayReward = oneYearReward.div(365);\r\n        uint256 oneTimesReward = oneDayReward.div(24);\r\n        uint256 oneMinReward = oneTimesReward.div(60);\r\n        uint256 oneSeconReward = oneMinReward.div(60);\r\n        return oneSeconReward;        \r\n    }\r\n\r\n    function userReward(address account) public view returns (uint256){\r\n       return USER_REWARD[account];\r\n    }\r\n    \r\n    function teamPoolAddress() public view returns (address){\r\n       return TEAM_POOL;\r\n    }\r\n\r\n    //  \r\n    function _updateAllReward () internal {\r\n        for(uint256 i=0; i<CONTRACT_LIST.length; i++){\r\n            if(IS_RUNNING_POOL){\r\n                _updateReward(CONTRACT_LIST[i]);\r\n            }\r\n        }\r\n    }\r\n\r\n    //     \r\n    function _calculateEarn (uint256 elapsed, uint256 staked) internal view returns (uint256) {\r\n        if(staked == 0){return 0;}\r\n        \r\n        if(elapsed <= 0){return 0;}\r\n\r\n        uint256 oneYearReward = staked.mul(REWARD_RATE).div(100);\r\n        uint256 oneDayReward = oneYearReward.div(365);\r\n        uint256 oneTimesReward = oneDayReward.div(24);\r\n        uint256 oneMinReward = oneTimesReward.div(60);\r\n        uint256 oneSeconReward = oneMinReward.div(60);\r\n        uint256 secondReward = oneSeconReward.mul(elapsed); //  \r\n     \r\n        return secondReward;\r\n    }\r\n\r\n    function _changeRewardRate (uint256 _rate) internal {\r\n        _updateAllReward();\r\n        REWARD_RATE = _rate;\r\n    }\r\n\r\n    function contractListCount () external view returns (uint256) {\r\n        return CONTRACT_LIST.length;\r\n    }\r\n}\r\n\r\ncontract TokenStakePool is Ownable, TokenRewardPool{\r\n    \r\n    // string private constant _name = \"PoolName\";\r\n    // uint256 private constant _rate = 20; //%\r\n    // address private constant _rewardToken = \"\"; // \r\n    // address private constant _stakeToken = \"\"; // \r\n    // address private constant _teamPool = \"\"; //  \r\n    // constructor () TokenRewardPool(_rate, _rewardToken, _stakeToken, _teamPool) onlyOwner public{\r\n    //     //extend to do\r\n    // }\r\n\r\n////////////// TesetNet /////////////////\r\n    string private name = \"PoolName\";\r\n       \r\n    uint256 public startBlock; //\r\n    constructor (   \r\n        string memory _name,//Pool Name\r\n        uint256 _rate, // \r\n        address _rewardToken, // \r\n        address _stakeToken, // \r\n        address _teamPool) TokenRewardPool(_rate, _rewardToken, _stakeToken, _teamPool) onlyOwner public{\r\n        name = _name;\r\n        startBlock = block.timestamp;\r\n    }\r\n\r\n    //[1] init :   \r\n    function initTotalReward () public onlyOwner {\r\n        _initPool();\r\n    }\r\n\r\n    function endPool() public onlyOwner {\r\n          _endPool(owner());\r\n    }\r\n\r\n    function changeRewardRate (uint256 rate) public onlyOwner {\r\n       _changeRewardRate(rate);\r\n    }\r\n\r\n    function updatePool () public onlyOwner {\r\n       _updatePool();\r\n    }  \r\n}",
  "sourcePath": "C:/ETHER/2.GitHub/Token-Pool/contracts/TokenStakePool.sol",
  "compiler": {
    "name": "solc",
    "version": "0.5.10+commit.5a6ea5b1.Emscripten.clang"
  },
  "schemaVersion": "3.3.2",
  "updatedAt": "2020-12-05T08:32:28.397Z",
  "networkType": "ethereum",
  "devdoc": {
    "methods": {
      "isOwner()": {
        "details": "Returns true if the caller is the current owner.\r"
      },
      "owner()": {
        "details": "Returns the address of the current owner.\r"
      },
      "transferOwnership(address)": {
        "details": "Transfers ownership of the contract to a new account (`newOwner`).\r Can only be called by the current owner.\r"
      }
    }
  },
  "userdoc": {
    "methods": {}
  }
}